:0600000002001902028853
:03000B0002027E70
:030013000202A73F
:0300720002001673
:0300160002007570
:20007500750A3C750B00759000D2AFD2A8D2AAD288D28A12027412021412022512020812E7
:20009500021A12020812021A12020E12021A12021412022512020812021A12020812022595
:2000B50012020812021A12020E12022512020812022512020812021A12020812022512027E
:2000D5000E1202251202081202251202081202251202081202251202081202251202081242
:2000F500020E12021A12020812021A12020812022512020E12022512020812022512020842
:2001150012021A12020E12022512020812022512020E12021A120208120225120208120217
:200135001A12021412022512020812022512020812021A12020812022512020E12022512CE
:20015500020E12021A12020812021A12020812021A12020812021A12021412021A120208FC
:2001750012021A12020E12022512020812021A12020E12021A12020812021A1202081202CD
:200195001A12020812021A12020812021A12020E12021A1202081202251202081202251290
:2001B500020812022512020812022512020E12021A12020812021A12020812022512020E81
:2001D50012022512020812021A12020812022502008BAE82AF83EE4F70057C01FD80048E05
:2001F500048F058C0C8D0D850A82850B831202C60202309000010201E79000030201E79066
:2002150000070201E7D2909000011201E7C29022D2909000031201E7C29022AE82AF831E94
:20023500BEFF011F7C007D00C3EE9CEF64808DF063F08095F04027750801750900758CFE7C
:20025500758AB2D28CC3E4950874808509F063F08095F040F0C28C0CBC00CD0D80CA22756B
:200275008901D2A9D2B9D2AF22C0E0E4F508F509D0E032C0E0C0D0C37405950AE4950B50F6
:200295000CE50A24FBF50AE50B34FFF50BD0D0D0E032C0E0C0D0C3E50A94FAE50B94005047
:1102B5000B7405250AF50AE4350BF50BD0D0D0E032E0
:06004800E478FFF6D8FD8C
:200026007900E94400601B7A009002E7780175A000E493F2A308B8000205A0D9F4DAF27597
:02004600A0FF19
:1D02C600E582850CF0A4C582C0F0850DF0A4D0F025F0C583850CF0A42583F58322EE
:20004E007800E84400600A790175A000E4F309D8FC7800E84400600C7900900001E4F0A3B0
:04006E00D8FCD9FAE7
:0D00190075810D1202E3E5826003020016FE
:0402E30075820022FE
:00000001FF
