:03000000020006F5
:03005F0002000399
:0300030002006296
:2000620012007CD2AF1202A99000141201E712008512009512009C80F522D296C291C29282
:20008200D29522C29630B5051200B580031200C0D296229000011202B122209015D292202C
:2000A20090089000641202E580F5C2929001F41202E522C2959027101202E5D2952212029C
:2000C2008C12029E12027E12029312027E12029312028512029312028C12029E12027E1238
:2000E200029312027E12029E12027E12029312028512029E12027E12029E12027E12029324
:2001020012027E12029E12028512029E12027E12029E12027E12029E12027E12029E12026E
:200122007E12029E12028512029312027E12029312027E12029E12028512029E12027E12E1
:20014200029E12027E12029312028512029E12027E12029E12028512029312027E12029EB1
:2001620012027E12029320977812028C12029312027E12029312028512029E12027E1202A4
:200182009312028512029312027E12029312027E12029312027E12029312027E1202931294
:2001A200028512029312027E12029E12027E12029E12027E12029E12027E12029E12028566
:2001C20012029312027E12029312027E12029E12028512029E12027E12029312027E1202CF
:0501E2009E12028C22B8
:2001E700AE82AF83EE4F70089000141201FF80078E828F831201FF22AE82AF83EE4F601D32
:20020700C3EE9464EF940050148E088F098E0E8F0F9004B01203D985820A85830B228508DA
:200227008285098322C374059508E49509500FE50824FFF582E50934FFF5831201FF22C331
:20024700E50894FAE5099400500A850882850983A31201FF22AE82AF83EE4F70057C01FDBB
:2002670080048E048F058C0E8D0F850A82850B831204021202E52290000112025C2290008D
:200287000312025C2290000712025C22D29190000112025CC29122D29190000312025CC298
:0202A7009122A2
:2002A900758901D2A9D2B922AE82AF837C007D001EBEFF011F90EA60C007C006C005C004C8
:2002C9001202E5D004D005D006D0070CBC00010D8C028D03C3EE9AEF9B50DA22AE82AF834F
:2002E9007C007D001EBEFF011F750C01750D00758CF8758A58C28DD28C308DFDC28C0CBC30
:1903090000010D8C028D03C3EE9AEF9B50DB22C0E0E4F50CF50DD0E03224
:20032200AE82AF83D2918E828F83C007C0061202E5D006D007C2918E828F83C007C006128D
:2003420002E5D006D00780DC22D2A8D2AAD288D28A22C020C0E0C0F0C082C083C007C00679
:20036200C005C004C003C002C001C000C0D075D00012022CD0D0D000D001D002D003D0041D
:20038200D005D006D007D083D082D0F0D0E0D02032C020C0E0C0F0C082C083C007C006C0A0
:2003A20005C004C003C002C001C000C0D075D000120246D0D0D000D001D002D003D004D0B3
:1703C20005D006D007D083D082D0F0D0E0D02032900004120322224E
:2003D9007A10E4FBFCE58225E0F582E58333F583EB33FBEC33FCEB950EF5F0EC950F40062C
:0903F900FCABF0438201DADD22C5
:06003500E4787FF6D8FD1F
:200013007900E94400601B7A00900423780175A000E493F2A308B8000205A0D9F4DAF2756C
:02003300A0FF2C
:1D040200E582850EF0A4C582C0F0850FF0A4D0F025F0C583850EF0A42583F58322AA
:20003B007800E84400600A790175A000E4F309D8FC7800E84400600C7900900001E4F0A3C3
:04005B00D8FCD9FAFA
:0D00060075812012041FE5826003020003D3
:04041F0075820022C0
:00000001FF
