:06000000020019020418C1
:03000B0002040EDE
:03001300020437AD
:0300720002001673
:0300160002007570
:20007500750A3C750B00759000D2AF1204041203699027101203C020B2F480FB22AD82AE36
:2000950083AFF0ED4E7003020368ED4E70030203688D04BC200302032DBC30030202B2BCF0
:2000B50031030202DBBC3503020304BC4303020150BC4403020174BC4503020192BC4703AD
:2000D5000201B0BC48030201CEBC49030201F2BC4B0302020ABC4D03020228BC510302021F
:2000F50040BC5203020264BC5403020282BC5503020294BC63028043BC64028062BC6502E2
:20011500807BBC67030201B0BC68030201CEBC69030201F2BC6B0302020ABC6D0302022851
:20013500BC7103020240BC7203020264BC7403020282BC750302029402033CC007C006C08A
:20015500051203B51203951203AA1203951203B51203951203AAD005D006D00702033CC0F2
:2001750007C006C0051203B51203951203AA1203951203AAD005D006D00702033CC007C0F2
:2001950006C0051203B51203951203AA1203951203AAD005D006D00702033CC007C006C0D3
:2001B500051203B51203951203B51203951203AAD005D006D00702033CC007C006C0051257
:2001D50003AA1203951203AA1203951203AA1203951203AAD005D006D00702033CC007C0D8
:2001F50006C0051203AA1203951203AAD005D006D00702033CC007C006C0051203B5120303
:20021500951203AA1203951203B5D005D006D00702033CC007C006C0051203B51203951266
:2002350003B5D005D006D00702033CC007C006C0051203B51203951203B51203951203AA35
:200255001203951203B5D005D006D00702033CC007C006C0051203AA1203951203B51203B8
:20027500951203AAD005D006D00702033CC007C006C0051203B5D005D006D00702033CC0B3
:2002950007C006C0051203AA1203951203AA1203951203B5D005D006D00702033CC007C0D1
:2002B50006C0051203B51203951203B51203951203B51203951203B51203951203B5D005EF
:2002D500D006D0078061C007C006C0051203AA1203951203B51203951203B51203951203C3
:2002F500B51203951203B5D005D006D0078038C007C006C0051203AA1203951203AA1203F7
:20031500951203AA1203951203AA1203951203AAD005D006D007800FC007C006C00512032A
:20033500A3D005D006D0078D04BC2002801D74012DFAE43EFB8F04BA2002800FC007C00633
:20035500C00512039CD005D006D0070DBD00010E02009F2290047775F08012009222AE820E
:20037500AF83EE4F70057C01FD80048E048F058C0C8D0D850A82850B831204561203C022A7
:20039500900001120373229000031203732290000712037322D290900001120373C29022A0
:2003B500D290900003120373C29022AE82AF837C007D001EBEFF011FC3EE9CEF64808DF044
:2003D50063F08095F04027750801750900758CFE758AB2D28CC3E4950874808509F063F036
:2003F5008095F040F0C28C0CBC00CD0D80CA22758901D2A9D2B9D2AF22C0E0E4F508F50930
:20041500D0E032C0E0C0D0C37405950AE4950B500CE50A24FBF50AE50B34FFF50BD0D0D05A
:20043500E032C0E0C0D0C3E50A94FAE50B9400500B7405250AF50AE4350BF50BD0D0D0E02B
:010455003274
:110477002043513055474D5220494E3531554B000098
:06004800E4787FF6D8FD0C
:200026007900E94400601B7A00900488780175A000E493F2A308B8000205A0D9F4DAF275F4
:02004600A0FF19
:1D045600E582850CF0A4C582C0F0850DF0A4D0F025F0C583850CF0A42583F583225C
:20004E007800E84400600A790175A000E4F309D8FC7800E84400600C7900900001E4F0A3B0
:04006E00D8FCD9FAE7
:0D00190075810D120473E58260030200166C
:04047300758200226C
:00000001FF
