:0600000002001902029546
:03000B0002028B63
:030013000202B135
:0300720002001673
:0300160002007570
:20007500D296C291C292D295750A32750B00D2AF120281D291900004120243C29190000479
:2000950012024380EE221201F21202041201E41201F91201E41201F91201EB1201F9120124
:2000B500F21202041201E41201F91201E41202041201E41201F91201EB1202041201E412ED
:2000D50002041201E41201F91201E41202041201EB1202041201E41202041201E4120204BF
:2000F5001201E41202041201E41202041201EB1201F91201E41201F91201E412020412019E
:20011500EB1202041201E41202041201E41201F91201EB1202041201E41202041201EB1280
:2001350001F91201E41202041201E41201F92097781201F21201F91201E41201F91201EB5D
:200155001202041201E41201F91201EB1201F91201E41201F91201E41201F91201E4120155
:20017500F91201E41201F91201EB1201F91201E41202041201E41202041201E41202041225
:2001950001E41202041201EB1201F91201E41201F91201E41202041201EB1202041201E424
:2001B5001201F91201E41202041201F222AE82AF83EE4F70057C01FD80048E048F058C0C18
:2001D5008D0D850A82850B831202D0120243229000011201C2229000031201C22290000746
:2001F5001201C222D2919000011201C2C29122D2919000031201C2C29122AE82AF837C0097
:200215007D001EBEFF011F90C92CC007C006C005C004120243D004D005D006D0070CBC0041
:20023500010D8C028D03C3EE9AEF9B50DA22AE82AF837C007D001EBEFF011F75080175090A
:2002550000758CFE758AB3D28CC3E4950874808509F063F08095F040F0C28C0CBC00010D18
:200275008C028D03C3EE9AEF9B50D022758901D2A9D2B9D2AF22C0E0E4F508F509D0E0322B
:20029500C0E0C0D0C37405950AE4950B5009150A74FFB50A02150BD0D0D0E032C0E0C0D03C
:1B02B500C3E50A94FAE50B9400500B7401250AF50AE4350BF50BD0D0D0E032C6
:06004800E4787FF6D8FD0C
:200026007900E94400601B7A009002F1780175A000E493F2A308B8000205A0D9F4DAF2758D
:02004600A0FF19
:1D02D000E582850CF0A4C582C0F0850DF0A4D0F025F0C583850CF0A42583F58322E4
:20004E007800E84400600A790175A000E4F309D8FC7800E84400600C7900900001E4F0A3B0
:04006E00D8FCD9FAE7
:0D00190075810D1202EDE5826003020016F4
:0402ED0075820022F4
:00000001FF
