:0400000002001132B7
:03000B0002076881
:03006A0002000E83
:03000E0002006D80
:20006D00750A32750B00759000D2AF12075E1206C390271012071A20B2F480FB22AD82AE30
:20008D0083AFF0ED4E70030206C28D828E838FF012078FFC70030206C2BC20005003020602
:2000AD0057EC24855003020657EC24E0FC240A83F582EC245F83F583E473465757575757C7
:2000CD00575757575757575757571DA4CEF8224C76A0CAF4575757575757577D95BCE0FED7
:2000ED00103452768EB2D0F40C2442668AA8C6D8F61A385C805757575757577D95BCE0FE61
:20010D00103452768EB2D0F40C2442668AA8C6D8F61A385C800606060606060606060606B4
:20012D0006060606060604040405050505050506060606060606010101010102020202022B
:20014D0002020203030303030303030304040404060606060606010101010102020202022E
:20016D0002020203030303030303030304040404C007C006C0051207041206EF12070FD0D3
:20018D0005D006D007020684C007C006C00512070F1206EF1207041206EF1207041206EF4B
:2001AD001207041206EFD005D006D007020684C007C006C00512070F1206EF12070412064A
:2001CD00EF12070F1206EF120704D005D006D007020684C007C006C00512070F1206EF1236
:2001ED0007041206EF120704D005D006D007020684C007C006C005120704D005D006D007C4
:20020D00020684C007C006C0051207041206EF1207041206EF12070F1206EF120704D0058A
:20022D00D006D007020684C007C006C00512070F1206EF12070F1206EF120704D005D00600
:20024D00D007020684C007C006C0051207041206EF1207041206EF1207041206EF12070453
:20026D00D005D006D007020684C007C006C0051207041206EF120704D005D006D007020646
:20028D0084C007C006C0051207041206EF12070F1206EF12070F1206EF12070FD005D00626
:2002AD00D007020684C007C006C00512070F1206EF1207041206EF12070FD005D006D0077F
:2002CD00020684C007C006C0051207041206EF12070F1206EF1207041206EF120704D005CA
:2002ED00D006D007020684C007C006C00512070F1206EF12070FD005D006D007020684C041
:20030D0007C006C00512070F1206EF120704D005D006D007020684C007C006C00512070F6A
:20032D001206EF12070F1206EF12070FD005D006D007020684C007C006C0051207041206BD
:20034D00EF12070F1206EF12070F1206EF120704D005D006D007020684C007C006C00512B4
:20036D00070F1206EF12070F1206EF1207041206EF12070FD005D006D007020684C007C043
:20038D0006C0051207041206EF12070F1206EF120704D005D006D007020684C007C006C0BA
:2003AD00051207041206EF1207041206EF120704D005D006D007020684C007C006C0051254
:2003CD00070FD005D006D007020684C007C006C0051207041206EF1207041206EF12070F2A
:2003ED00D005D006D007020684C007C006C0051207041206EF1207041206EF120704120613
:20040D00EF12070FD005D006D007020684C007C006C0051207041206EF12070F1206EF12F3
:20042D00070FD005D006D007020684C007C006C00512070F1206EF1207041206EF120704C9
:20044D001206EF12070FD005D006D007020684C007C006C00512070F1206EF12070412069C
:20046D00EF12070F1206EF12070FD005D006D007020684C007C006C00512070F1206EF1288
:20048D00070F1206EF1207041206EF120704D005D006D007020684C007C006C00512070474
:2004AD001206EF12070F1206EF12070F1206EF12070F1206EF12070FD005D006D0070206E9
:2004CD0084C007C006C0051207041206EF1207041206EF12070F1206EF12070F1206EF1281
:2004ED00070FD005D006D007020684C007C006C0051207041206EF1207041206EF12070414
:20050D001206EF12070F1206EF12070FD005D006D007020684C007C006C0051207041206DB
:20052D00EF1207041206EF1207041206EF1207041206EF12070FD005D006D007020684C05D
:20054D0007C006C0051207041206EF1207041206EF1207041206EF1207041206EF1207044F
:20056D00D005D006D007020684C007C006C00512070F1206EF1207041206EF120704120686
:20058D00EF1207041206EF120704D005D006D007020684C007C006C00512070F1206EF127D
:2005AD00070F1206EF1207041206EF1207041206EF120704D005D006D007020684C007C017
:2005CD0006C00512070F1206EF12070F1206EF12070F1206EF1207041206EF120704D005A0
:2005ED00D006D007020684C007C006C00512070F1206EF12070F1206EF12070F1206EF12C4
:20060D00070F1206EF120704D005D006D0078067C007C006C00512070F1206EF12070F126F
:20062D0006EF12070F1206EF12070F1206EF12070FD005D006D007803EC007C006C005128E
:20064D0006FDD005D006D007802DC007C006C0051207041206EF1207041206EF12070F1287
:20066D0006EF12070F1206EF1207041206EF120704D005D006D0078D828E838FF012078F3F
:20068D00FCBC2002802774012DFAE43EFB8F048A828B838CF012078FFABA2002800FC00716
:2006AD00C006C0051206F6D005D006D0070DBD00010E020097229007AF75F08012008A2295
:2006CD00AE82AF83EE4F70057C01FD80048E048F058C0C8D0D850A82850B831207721207DB
:2006ED001A229000011206CD229000031206CD229000071206CD22D2909000011206CDC247
:20070D009022D2909000031206CDC29022AE82AF837C007D001EBEFF011FC3EE9CEF648056
:20072D008DF063F08095F04027750801750900758CFE758AB2D28CC3E4950874808509F0B0
:20074D0063F08095F040F0C28C0CBC00CD0D80CA22758901D2A9D2B9D2AF22C0E0E4F5087F
:05076D00F509D0E032A7
:2007AF004142434445464748494A4B4C4D4E4F505152535455565758595A2031323334352C
:0707CF003637383930000015
:06004000E4787FF6D8FD14
:20001E007900E94400601B7A009007D6780175A000E493F2A308B8000205A0D9F4DAF275AB
:02003E00A0FF21
:1D077200E582850CF0A4C582C0F0850DF0A4D0F025F0C583850CF0A42583F583223D
:200046007800E84400600A790175A000E4F309D8FC7800E84400600C7900900001E4F0A3B8
:04006600D8FCD9FAEF
:0D00110075810D1207ABE582600302000E41
:1C078F0020F71430F6148883A88220F507E6A88375830022E280F7E49322E02279
:0407AB007582002231
:00000001FF
