:0400000002001132B7
:03000B0002026787
:03006A0002000E83
:03000E0002006D80
:20006D0075900012025D1201F912020C1201ED1201FF1201ED1201FF1201F31201FF120182
:20008D00F912020C1201ED1201FF1201ED12020C1201ED1201FF1201F312020C1201ED12BE
:2000AD00020C1201ED1201FF1201ED12020C1201F312020C1201ED12020C1201ED12020C8D
:2000CD001201ED12020C1201ED12020C1201ED1201F31201FF1201ED1201FF1201ED120295
:2000ED000C1201F312020C1201ED12020C1201ED1201FF1201F312020C1201ED12020C1237
:20010D0001F31201FF1201ED12020C1201ED1201FF1201F912020C1201ED12020C1201ED4E
:20012D001201FF1201ED12020C1201F312020C1201F31201FF1201ED1201FF1201ED12011D
:20014D00FF1201ED1201FF1201F91201FF1201ED1201FF1201F312020C1201ED1201FF1207
:20016D0001F31201FF1201ED1201FF1201ED1201FF1201ED1201FF1201ED1201FF1201F31E
:20018D001201FF1201ED12020C1201ED12020C1201ED12020C1201ED12020C1201F31201A7
:2001AD00FF1201ED1201FF1201ED12020C1201F312020C1201ED1201FF1201ED12020C02A7
:2001CD000073AE82AF83EE4F70057C01FD80048E048F058C0A8D0B90003C120271020219CB
:2001ED009000010201CF9000030201CF9000070201CF7590FF9000011201CF7590002275AE
:20020D0090FF9000031201CF75900022AE82AF831EBEFF011F7C007D00C3EE9CEF64808DA3
:20022D00F063F08095F04027750801750900758CFE758AB2D28CC3E4950874808509F063DF
:20024D00F08095F040F0C28C0CBC00CD0D80CA22758901D2A9D2B9D2AF22C0E0E4F508F5F2
:04026D0009D0E032A2
:06004000E478FFF6D8FD94
:20001E007900E94400601B7A00900292780175A000E493F2A308B8000205A0D9F4DAF275F4
:02003E00A0FF21
:1D027100E582850AF0A4C582C0F0850BF0A4D0F025F0C583850AF0A42583F5832249
:200046007800E84400600A790175A000E4F309D8FC7800E84400600C7900900001E4F0A3B8
:04006600D8FCD9FAEF
:0D00110075810B12028EE582600302000E65
:04028E007582002253
:00000001FF
