:0600000002001902025E7D
:03000B000202549A
:0300130002029D49
:0300720002001673
:0300160002007570
:20007500D296C291C292D2951202DCD2AF12024AC29630B50CC295902710120217D29580AD
:20009500031200BCD29690271012021720900D209202D29290006412021780F0C2929001D7
:2000B500F412021780CA2212033E12035012033012034512033012034512033712034512F2
:2000D500033E12035012033012034512033012035012033012034512033712035012033087
:2000F500120350120330120345120330120350120337120350120330120350120330120388
:20011500501203301203501203301203501203371203451203301203451203301203501225
:2001350003371203501203301203501203301203451203371203501203301203501203371B
:2001550012034512033012035012033012034520977812033E120345120330120345120357
:200175003712035012033012034512033712034512033012034512033012034512033012F4
:200195000345120330120345120337120345120330120350120330120350120330120350BF
:2001B5001203301203501203371203451203301203451203301203501203371203501203CB
:2001D5003012034512033012035012033E22AE82AF837C007D001EBEFF011F90C92CC007BF
:2001F500C006C005C004120217D004D005D006D0070CBC00010D8C028D03C3EE9AEF9B5001
:20021500DA22AE82AF837C007D001EBEFF011F750801750900758CFE758ABAC28DD28C30E6
:200235008DFDC28C0CBC00010D8C028D03C3EE9AEF9B50DB22758901D2A9D2B9D2AF22C053
:20025500E0E4F508F509D0E032C020C0E0C0F0C082C083C007C006C005C004C003C002C0D8
:2002750001C000C0D075D0001202E3D0D0D000D001D002D003D004D005D006D007D083D07D
:2002950082D0F0D0E0D02032C020C0E0C0F0C082C083C007C006C005C004C003C002C00124
:2002B500C000C0D075D0001202F7D0D0D000D001D002D003D004D005D006D007D083D082A8
:0702D500D0F0D0E0D0203290
:2002DC00750A32750B0022C37405950AE4950B5009150A74FFB50A02150B22C3E50A94FA22
:2002FC00E50B9400500B7401250AF50AE4350BF50B22AE82AF83EE4F70057C01FD80048E7A
:20031C00048F058C0C8D0D850A82850B8312035B1202172290000112030E22900003120398
:1F033C000E2290000712030E22D29190000112030EC29122D29190000312030EC291227C
:06004800E4787FF6D8FD0C
:200026007900E94400601B7A0090037C780175A000E493F2A308B8000205A0D9F4DAF27501
:02004600A0FF19
:1D035B00E582850CF0A4C582C0F0850DF0A4D0F025F0C583850CF0A42583F5832258
:20004E007800E84400600A790175A000E4F309D8FC7800E84400600C7900900001E4F0A3B0
:04006E00D8FCD9FAE7
:0D001900758120120378E582600302001655
:040378007582002268
:00000001FF
