:0600000002001902028B50
:03000B000202816D
:030013000202A73F
:0300720002001673
:0300160002007570
:20007500750A32750B00C290D2AF12027712009190000A12020520B2F480FB221201E81216
:2000950001FA1201DA1201EF1201DA1201EF1201E11201EF1201E81201FA1201DA1201EF85
:2000B5001201DA1201FA1201DA1201EF1201E11201FA1201DA1201FA1201DA1201EF120145
:2000D500DA1201FA1201E11201FA1201DA1201FA1201DA1201FA1201DA1201FA1201DA1236
:2000F50001FA1201E11201EF1201DA1201EF1201DA1201FA1201E11201FA1201DA1201FA16
:200115001201DA1201EF1201E11201FA1201DA1201FA1201E11201EF1201DA1201FA1201DD
:20013500DA1201EF20967B1201E81201EF1201DA1201EF1201E11201FA1201DA1201EF12AF
:2001550001E11201EF1201DA1201EF1201DA1201EF1201DA1201EF1201DA1201EF1201E1F6
:200175001201EF1201DA1201FA1201DA1201FA1201DA1201FA1201DA1201FA1201E1120179
:20019500EF1201DA1201EF1201DA1201FA1201E11201FA1201DA1201EF1201DA1201FA1276
:2001B50001E822AE82AF83EE4F70057C01FD80048E048F058C0C8D0D850A82850B8312027D
:2001D500C6120239229000011201B8229000031201B8229000071201B822D290900001124E
:2001F50001B8C29022D2909000031201B8C29022AE82AF837C007D001EBEFF011F90EA6059
:20021500C007C006C005C004120239D004D005D006D0070CBC00010D8C028D03C3EE9AEFE2
:200235009B50DA22AE82AF837C007D001EBEFF011F750801750900758CFE758AB2D28CC39F
:20025500E4950874808509F063F08095F040F0C28C0CBC00010D8C028D03C3EE9AEF9B50A7
:20027500D022758901D2A9D2B9D2AF22C0E0E4F508F509D0E032C0E0C0D0C37405950AE47F
:20029500950B5009150A74FFB50A02150BD0D0D0E032C0E0C0D0C3E50A94FAE50B94005017
:1102B5000B7401250AF50AE4350BF50BD0D0D0E032E4
:06004800E4787FF6D8FD0C
:200026007900E94400601B7A009002E7780175A000E493F2A308B8000205A0D9F4DAF27597
:02004600A0FF19
:1D02C600E582850CF0A4C582C0F0850DF0A4D0F025F0C583850CF0A42583F58322EE
:20004E007800E84400600A790175A000E4F309D8FC7800E84400600C7900900001E4F0A3B0
:04006E00D8FCD9FAE7
:0D00190075810D1202E3E5826003020016FE
:0402E30075820022FE
:00000001FF
