:03000000020006F5
:03005F0002000399
:0300030002006296
:2000620012007CD2AF1202589000141201961200891200A71200B480F522D296C291D295E3
:20008200D2B1D294D293227F00D294D293EF70142094071200DB7F0180F32093F01200E6FB
:2000A2007F0180E922900009120293905014120260227E007F00900032C007C006120260A9
:2000C200D006D00720B1047E007F000EBE00010FC374649EE49F50DE22C2959003E81202D1
:2000E20060D29522C29612023B12024D12022D12024212022D12024212023412024212022D
:200102003B12024D12022D12024212022D12024D12022D12024212023412024D12022D1275
:20012200024D12022D12024212022D12024D12023412024D12022D12024D12022D12024D48
:2001420012022D12024D12022D12024D12023412024212022D12024212022D12024D12026E
:200162003412024D12022D12024D12022D12024212023412024D12022D12024D120234120A
:14018200024212022D12024D12022D12024212023BD2962213
:20019600AE82AF83EE4F70089000141201AE80078E828F831201AE22AE82AF83EE4F601D25
:2001B600C3EE9464EF940050148E088F098E0E8F0F9004B012038885820A85830B2285087D
:2001D6008285098322C374059508E49509500FE50824FFF582E50934FFF5831201AE22C3D4
:2001F600E50894FAE5099400500A850882850983A31201AE22AE82AF83EE4F70057C01FD5E
:2002160080048E048F058C0E8D0F850A82850B831203B11202602290000112020B22900006
:200236000312020B2290000712020B22D29190000112020BC29122D29190000312020BC22D
:020256009122F3
:20025800758901D2A9D2B922AE82AF837C007D001EBEFF011F750C01750D00758CFE758A07
:20027800BAC28DD28C308DFDC28C0CBC00010D8C028D03C3EE9AEF9B50DB22AE82AF837C03
:20029800007D001EBEFF011F90EA60C007C006C005C004120260D004D005D006D0070CBC4C
:1902B80000010D8C028D03C3EE9AEF9B50DA22C0E0E4F50CF50DD0E03277
:2002D100AE82AF83D2918E828F83C007C006120260D006D007C2918E828F83C007C0061264
:2002F1000260D006D00780DC22D2A8D2AAD288D28A22C020C0E0C0F0C082C083C007C00650
:20031100C005C004C003C002C001C000C0D075D0001201DBD0D0D000D001D002D003D004C0
:20033100D005D006D007D083D082D0F0D0E0D02032C020C0E0C0F0C082C083C007C006C0F1
:2003510005C004C003C002C001C000C0D075D0001201F5D0D0D000D001D002D003D004D056
:1703710005D006D007D083D082D0F0D0E0D020329000041202D122F1
:200388007A10E4FBFCE58225E0F582E58333F583EB33FBEC33FCEB950EF5F0EC950F40067D
:0903A800FCABF0438201DADD2216
:06003500E4787FF6D8FD1F
:200013007900E94400601B7A009003D2780175A000E493F2A308B8000205A0D9F4DAF275BE
:02003300A0FF2C
:1D03B100E582850EF0A4C582C0F0850FF0A4D0F025F0C583850EF0A42583F58322FC
:20003B007800E84400600A790175A000E4F309D8FC7800E84400600C7900900001E4F0A3C3
:04005B00D8FCD9FAFA
:0D0006007581201203CEE582600302000325
:0403CE007582002212
:00000001FF
