:03000000020006F5
:03005F0002000399
:0300030002006296
:200062001203C6D2AF1202969000141201CA12007C1200AC1200B980F5227F00EF702A2021
:20008200B5071200F37F0180F320B4071201057F0180E9D2B09000FAC00712029EC2B09047
:2000A20000FA12029ED00780D3229000091202D190E20E12029E227E007F00D2B0EE4F7048
:2000C2002DFCFD3093032094047C007D00900032C005C00412029ED004D0050CBC00010D05
:2000E200C374649CE49D50DB7E017F0080CFC2B02230B704D2958002C2959003E812029EE2
:20010200B29522C29612027512028912026712027C12026712027C12026E12027C12027545
:2001220012028912026712027C12026712028912026712027C12026E120289120267120244
:200142008912026712027C12026712028912026E1202891202671202891202671202891290
:20016200026712028912026712028912026E12027C12026712027C12026712027C120267BC
:2001820012028912026E12028912026712027C12026712027C12026712027C1202671202F1
:2001A2006E12027C12026712028912026712027C12026E1202891202671202891202671258
:0801C200027C120275D29622A4
:2001CA00AE82AF83EE4F70089000141201E280078E828F831201E222AE82AF83EE4F601D89
:2001EA00C3EE9464EF940050148E088F098E0E8F0F9004B01203D685820A85830B228508FB
:20020A008285098322C374059508E49509500FE50824FFF582E50934FFF5831201E222C36B
:20022A00E50894FAE5099400500A850882850983A31201E222AE82AF83EE4F70057C01FDF5
:20024A0080048E048F058C0E8D0F850A82850B831203FF12029E22D29122C291229000011D
:20026A0012023F2290000312023F2290000712023F2212026190000112023F1202642212E6
:0C028A00026190000312023F1202642285
:20029600758901D2A9D2B922AE82AF837C007D001EBEFF011F750C01750D00758CF8758ACF
:2002B60058C28DD28C308DFDC28C0CBC00010D8C028D03C3EE9AEF9B50DB22AE82AF837C27
:2002D600007D001EBEFF011F90EA60C007C006C005C00412029ED004D005D006D0070CBCD0
:1902F60000010D8C028D03C3EE9AEF9B50DA22C0E0E4F50CF50DD0E03239
:20030F00AE82AF83D2918E828F83C007C00612029ED006D007C2918E828F83C007C00612E7
:20032F00029ED006D00780DC22D2A8D2AAD288D28A22C020C0E0C0F0C082C083C007C006D3
:20034F00C005C004C003C002C001C000C0D075D00012020FD0D0D000D001D002D003D0044D
:20036F00D005D006D007D083D082D0F0D0E0D02032C020C0E0C0F0C082C083C007C006C0B3
:20038F0005C004C003C002C001C000C0D075D000120229D0D0D000D001D002D003D004D0E3
:1703AF0005D006D007D083D082D0F0D0E0D0203290000412030F2274
:1003C600C291D296C2B030B704C2958002D29522AD
:2003D6007A10E4FBFCE58225E0F582E58333F583EB33FBEC33FCEB950EF5F0EC950F40062F
:0903F600FCABF0438201DADD22C8
:06003500E4787FF6D8FD1F
:200013007900E94400601B7A00900420780175A000E493F2A308B8000205A0D9F4DAF2756F
:02003300A0FF2C
:1D03FF00E582850EF0A4C582C0F0850FF0A4D0F025F0C583850EF0A42583F58322AE
:20003B007800E84400600A790175A000E4F309D8FC7800E84400600C7900900001E4F0A3C3
:04005B00D8FCD9FAFA
:0D00060075812012041CE5826003020003D6
:04041C0075820022C3
:00000001FF
